:020000041000EA
:1000000000B5324B212058609868022188439860DF
:10001000D860186158612E4B002199600221596106
:100020000121F02299502B49196001219960352056
:1000300000F044F80222904214D00621196600F024
:1000400034F8196E01211966002018661A6600F04E
:100050002CF8196E196E196E052000F02FF8012189
:100060000842F9D1002199601B49196000215960AB
:100070001A491B48016001219960EB211966A021F2
:10008000196600F012F800219960164914480160C1
:100090000121996001BC002800D000471248134993
:1000A000086003C880F30888084703B5996A0420EC
:1000B0000142FBD001200142F8D103BD02B5186610
:1000C0001866FFF7F2FF186E186E02BD00000240BE
:1000D000000000180000070000035F00212200005C
:1000E000F4000018222000A00001001008ED00E03C
:1000F00000000000000000000000000074B24E7A12
:1001000000200420F7010010C3010010C5010010F9
:10011000C1010010C1010010C1010010C101001097
:10012000C1010010C1010010C1010010C701001081
:10013000C1010010C1010010C9010010CB01001065
:10014000CD010010CD010010CD010010CD01001037
:10015000CD010010CD010010CD010010CD01001027
:10016000CD010010CD010010CD010010CD01001017
:10017000CD010010CD010010CD010010CD01001007
:10018000CD010010CD010010CD010010CD010010F7
:10019000CD010010CD010010CD010010CD010010E7
:1001A000CD010010CD010010CD010010CD010010D7
:1001B000CD010010CD010010CD010010CD010010C7
:1001C00000BE00BE00BE00BE00BE00BEEFF3058054
:1001D000103800BEF2EB8871289F0010589F001065
:1001E0003802001090A31AE71E481F49086006C88D
:1001F00081F3088810471D480068002801D019487D
:10020000F3E70DA40ECC002902D000F012F8F9E7B4
:100210001749184A002000E001C19142FCD116495B
:100220008847164988471649884700BEFDE701C937
:1002300001C29A42FBD37047589F0010C0000020B3
:10024000F015002088B400100000042000000420F5
:1002500088B40010001004200010042000000000EA
:10026000704700000000000008ED00E0000000D032
:10027000F0150020C4260020495B00102910001052
:10028000415B0010F8B5C04606480749091A8B10B3
:10029000C90FC91810B5491003D0044B002B00D06A
:1002A000984710BDF0150020F01500200000000058
:1002B000054B10B5002B03D00449054800E000BFF2
:1002C000FFF7E2FF10BDC046000000003825002007
:1002D00034950010144B9B6A052819D006280CD0C1
:1002E000162809D1114912480A689A1A824203D97C
:1002F0000120104A10700B6070470F490C480A68C3
:100300009A1A8242F8D901200C4A10700B60F3E768
:100310000B4907480A689A1A8242EDD90120094A16
:1003200010700B60E8E7C0460040054098260020AA
:10033000400D0300BD26002094260020BC2600208E
:1003400090260020BB260020002210B5064C074B4B
:10035000002120001A7001F025FA200001F0C8F9F0
:100360000021002003F02AFAF0200020BD26002002
:1003700010B50D2001F06CFFD024802324069B01D2
:1003800063620B2001F064FF80231B0163620C2079
:1003900001F05EFF80235B016362052001F058FFDE
:1003A00020230022A3620121052001F095FE0620F2
:1003B00001F04EFF40230022A3620121062001F03C
:1003C0008BFE162001F044FF8023DB03A362002292
:1003D0000121162001F080FE194B01220421052085
:1003E00001F0BAFE01220421062001F089FE01225B
:1003F0000421162001F084FE08F0FAFA1F211A20C9
:1004000001F050FE002200211A2001F065FE0021BB
:100410001A2001F009FF1F211B2001F043FE0022DA
:1004200000211B2001F058FE00211B2001F0FCFEE2
:100430000A2001F00DFF8023DB006362A36110BD81
:10044000D502001070B50400042101F02BFE6308F2
:100450001F2C1CD807221A4093009B180E4A9B00A1
:100460009D18FA2292002A610C4A9A1811680122FA
:10047000144060420A4C604001400A48181801606C
:1004800029688A4308498C4663441A6070BD032278
:100490001A400832E0E7C046000005400C00054065
:1004A000FFFF00000C1005400010054010B5174C70
:1004B00084B02000002101F075F90023029301337C
:1004C00001933F332000009300220021403301F0CC
:1004D000A7F920000A2316220D4901F0FBFB20009A
:1004E000142316220B4901F0F5FB200028231622C5
:1004F000094901F0EFFB322314222000074901F0E3
:10050000E9FB200001F0F4F804B010BDF020002059
:100510007095001078950010849500108C9500104F
:10052000F0B5DE46454657464E46E0B591B00CABB9
:100530009B4600275A46CD4CCD4B099027700E00A4
:1005400023CB23C2CB4D1B6800211360280001F090
:1005500029F9012301933F33002200212800009351
:100560000297403301F05CF905230A22310028008C
:1005700001F0B0FB280001F0BBF80023984605937A
:10058000BD4B9946BD4B0793BD4B0893BD4B9A4657
:100590004B46C146A0460693069B1B78002B00D015
:1005A0007CE11E243A00059B07990AA805F07EFA13
:1005B000049727002C26FCB2F1B200232200280069
:1005C000013601F0DBF8542EF6D101372E2FF1D190
:1005D0003C001E23049F2C2228000AA901F07AFB6C
:1005E000280001F085F8049727002C26FCB2F1B210
:1005F000002322002800013601F0C0F8542EF6D165
:100600000137362FF1D14B465A469B00D2580899F4
:100610002C322E23D2B22800049F01F05BFB28006D
:1006200001F066F8E021984AC90113680B40974928
:100630000B600421964B1960FC3113680B42FCD00F
:100640008023506812685B015340E022D2011340BE
:100650008E4A8021136004228D4B49001A608A4A19
:1006600013680B42FCD053688A4A9BB2934244D829
:100670008321C9008B424DD380B290424DD888422D
:1006800022D353461B78002B13D0002352461370FD
:10069000814B44461A78002A11D1099B059A18000B
:1006A0001F605A6011B0F0BCBB46B246A946A046D6
:1006B000F0BD794B1A78002A00D16DE7444600223C
:1006C0001A7001232370E8E74B46002B3CD10A2126
:1006D000380003F087F90A21441E380003F082F93C
:1006E0000F00002C5BDB022C59D0A3001B195B0010
:1006F000FF18C82002F0A0FCC3E74A4603320321DA
:10070000D3179B0FD2180A40D31AC820994602F07B
:1007100093FCB6E74A460132F1E74B46002B2BD15A
:100720000A21380003F05EF90321013003F05AF981
:1007300038000C000A2103F055F9022C77D0A700ED
:100740003F197F007F18D4E7012B2CD0022B44D017
:10075000032BCED1059E0A21300003F043F90A2174
:100760000400300003F03EF9013977D4A3001B19CF
:100770005B005B180593BCE7012B3FD0022B5AD0DE
:10078000032BB6D1059C0A21200003F02BF9481C4D
:10079000641A0A2103F026F963180593A9E7032FC9
:1007A00018DC1423A4E70A21380003F01BF9040025
:1007B0000A21380003F016F9A21E531E9A4106239F
:1007C000524213400333013900D40B00A7003F19F4
:1007D0007F008DE7032714238AE70A21059803F099
:1007E00001F93224013802D48400241864000598E9
:1007F0000A2103F0F7F80B1905937AE70A2138006C
:1008000003F0F0F804000A21380003F0EBF8A21E10
:10081000531E9A410623524213400433481C1900C8
:1008200003F0E0F8A7003F197F007F1861E7032974
:1008300085DD032183E7059E0A21300003F0D2F80D
:100840000621013003F0CEF88C00641830000A2134
:1008500003F0C8F86400631805934AE70921A30070
:100860001B195B005B18059343E7C046B9260020BF
:1008700030980010F0200020BD260020AC9500101C
:1008800098950010BB26002000C0044000D0044012
:1008900000E00440E80B0000BC260020069B00217D
:1008A000994600234A462800137000F07BFF280079
:1008B00000F01EFF0021002002F080FFF0B5D646B8
:1008C0004F464646C0B504018CB00690201A800001
:1008D000079140181101891A89000593CB180492D9
:1008E000984200DAF6E0B422D200944663441B1A20
:1008F0001A01D31A9B009846002B00DC01E1824BC1
:10090000824E9946824B9A464B461B78002B00D06C
:10091000E9E0E1214046090103F064F808003C21C8
:1009200003F060F8E12105000901404603F05AF8A0
:100930003C210400404603F055F82B0000912200B2
:10094000514609A805F0B2F81E272C24FDB2E1B2E9
:1009500000232A003000013400F010FF542CF6D19F
:1009600001372E2FF1D11E232C2209A9300001F0CE
:10097000B1F9300000F0BCFEFA20800002F05CFB10
:1009800001235B429C46634BE0441A78002A00D066
:10099000A6E04346002BB7D15F4B01241A68FA2327
:1009A0009B0453401B0C5D4A1B04136022005C4BEC
:1009B00000211B6830009A435A4B1A6000F0F2FE87
:1009C0000023029340330022002130000093019461
:1009D000403300F025FF05230A225349300001F07F
:1009E00079F9300000F084FE1E230A2230004F49BE
:1009F00001F070F928230A2230004D4901F06AF90C
:100A0000300000F075FE4B4B9A461B78002B3ED110
:100A10003D4BD02499468023DB00984624060A20CB
:100A200001F016FC434604210A20636201F03AFB00
:100A3000FA23414A414D9B0053672A68404F534077
:100A40001B041B0C3B603F4BFA201A6801239343A5
:100A50003D4A40001360FA232A68DB0053401B0420
:100A60001B0C3B6002F0E8FAFA202B6840001B04E4
:100A70001B0C3B6002F0E0FA4B461B78002B32D196
:100A80000A2002F0D9FA53461B78002BC7D0002366
:100A90005246012413702B4B2B4A1B68052123401F
:100AA0001360D02380221B06D2009A610A2001F035
:100AB000F9FA194B194A1B681B0C1B041360184BDD
:100AC0001B689C43174B1C600CB0E0BCBA46B14697
:100AD000A846F0BD1B1A1A01D31A9B0098460EE7D0
:100AE00000221A70F0E700234A46002130001370FC
:100AF00000F058FE300000F0FBFD0021002002F065
:100B00005DFE024E48E7C046BD260020F0200020D2
:100B1000DC950010BC2600208400054084100540B0
:100B20007800054078100540B8950010C095001079
:100B3000D0950010BB260020000005407000054045
:100B4000701005406400054064100540F0B5DE46B5
:100B5000454657464E46E0B503011B1A95B09B002B
:100B600009930B015B1A9B000A93D34BD34D079358
:100B7000D34B08900B93D34B9B46D34B0C93D34B47
:100B80000D93D34B01241A68FA239B0453401B0C8A
:100B9000D04A1B0413602200CF4B00211B682800A1
:100BA0009A43CE4B1A6000F0FDFD002302934033C0
:100BB00000220021280000930194403300F030FE11
:100BC00005230A222800079901F084F8089A0B9956
:100BD0000FA804F06BFF1E232C2228000FA901F0A0
:100BE00079F8280000F084FD099B1E000C9B9846B4
:100BF000002E00DCD0E15B461B78002B00D0E5E145
:100C000030003C2102F0EEFE30000C003C2102F0EE
:100C1000E9FE1E270200230041460FA8B14604F05A
:100C200045FF3E002C24F7B2E1B200233A00280031
:100C3000013400F0A3FD542CF6D101362E2EF1D153
:100C40001E232C220FA9280001F044F8280000F0F0
:100C50004FFDFA204E46800002F0EEF99B4B013E1C
:100C60001A78002AC4D01E00002333700124984B48
:100C7000984A1B681B0C1B0413602200964B1B68D0
:100C80009A43964B1A603378DFB2002B00D09AE17A
:100C9000934B00211A68FA239B0453401B0C914A82
:100CA0001B0413602200904B28001B68A8469A433F
:100CB0008E4BB2461A6000F075FD40230194D0249B
:100CC00000220021280002970093403300F0A8FD85
:100CD00005230A222800864900F0FCFF280000F0C6
:100CE00007FD2406834F32E00A2001F0B1FA802389
:100CF000DB0004210A20636201F0D4F9FA237E4A62
:100D0000734D9B0053672A68724E53401B041B0CA3
:100D10003360714BFA201A68012393436F4A4000F5
:100D20001360FA232A68DB0053401B041B0C33605A
:100D300002F082F9FA202B6840001B041B0C336080
:100D400002F07AF95B461B78002B00D04CE13B782F
:100D5000DAB29146002BC7D00122002311003B706C
:100D60005F4B60489C461B685F4C1B0C1B04036078
:100D70002368454699430B005C4990460B606346E7
:100D80001B6856469C46FA2362469B0053404246E7
:100D90001B041B0C036023689A430A9B0A60984655
:100DA000484B06969946484B9A463B00474698461C
:100DB000002F00DCEDE04B461B78002B00D018E143
:100DC00038003C2102F00EFE38000C003C2102F0FD
:100DD00009FE1E260200230051460FA804F066FEFD
:100DE000059737002C24FEB2E1B200233200280020
:100DF000013400F0C3FC542CF6D101372E2FF1D171
:100E00001E232C220FA92800059F00F063FF280055
:100E100000F06EFCFA20800002F00EF9069B013F04
:100E20001B78002BC4D000234746069E3370012454
:100E300022002B4B2B489C461B682B491B041B0C88
:100E400003600B689A431300284A13603378914675
:100E5000DAB29046002B00D0B5E063461B689C4692
:100E6000FA2362469B0453401B0C1B0403600B686F
:100E700021004A46994311602800002100F092FCAD
:100E80004346029340230194D024002200212800ED
:100E90000093403300F0C4FC05230A222800079980
:100EA00000F018FF280000F023FC064BB0469946DE
:100EB0002406059554E0C046EC950010F020002073
:100EC000F4950010BD260020AC950010BC26002033
:100ED0007000054070100540640005406410054036
:100EE00084000540841005407800054078100540D6
:100EF000FC950010BB260020000005400A2001F0F0
:100F0000A7F98023DB0004210A20636201F0CAF8FC
:100F1000FA233C4A3C4E9B00536732683B4D53409A
:100F20001B041B0C2B603A4BFA201A6801239343D5
:100F3000384A40001360FA233268DB0053401B0438
:100F40001B0C2B6002F078F8FA20336840001B0479
:100F50001B0C2B6002F070F84B461B78002B4CD119
:100F60003B78DAB29246002BC8D046463378059DCE
:100F7000DAB2002B12D1284B3A701B68274A1B0C9F
:100F80001B041360264B1A6801239343254A136000
:100F9000F7E54746069E4AE70D9E67E60023337055
:100FA0001D4B1E4A1B681B0C1B0413601C4B1A684C
:100FB000012393431B4A136015B0F0BCBB46B246F5
:100FC000A946A046F0BD00233370F5E700235A463A
:100FD00013700021280000F0E5FB280000F088FBDA
:100FE0000021002002F0EAFB5B464A4645461A70A3
:100FF000EFE700234A461370EBE74B465246059D48
:101000001A70E6E7000005407000054070100540CA
:1010100064000540641005408400054084100540CC
:101020007800054078100540F0B5DE4657464E463C
:101030004546E0B591B004F093FEFFF799F90B2017
:10104000FFF700FA0C20FFF7FDF90D20FFF7FAF982
:101050003C22C14FC14B0F21380000922E3A00F0C4
:1010600059FE380000F05CFABD4B9B461B78002B04
:1010700000D09AE0BB4ABC4B0C92BC4A99469046C1
:10108000BB4B5C469A464346BA4A0D9309924B467F
:101090001B78042B13D852469B00D3589F46B64B5F
:1010A0000EAE984600223000B449FFF739FA4346A5
:1010B00006CE06C3B24B1B78002B00D144E10123BE
:1010C0006AE00EAB984618000022AE49AE4EFFF71C
:1010D00027FA434603CB03C6A94B1A780323002AF9
:1010E0005AD0012358E0FFF7E1F9A84B9B461B7843
:1010F000002B48D14B460A935346A54DA54E059467
:101100000B93E0223368D2011340A34A13600422F8
:10111000A24B1A60FC3233681342FCD08023716802
:1011200032685B015340E022D20113409A4A1360B7
:1011300004229A4B1A60FC3233681342FCD0984A5E
:1011400073689446FA2263449BB2D200934200D95A
:1011500036E1614489B2914200D931E12B78002B0C
:1011600001D000232B70059B1B78002B1DD1322052
:1011700001F062FF5B461B78002BC2D00A9B059CE6
:1011800099460B9B9A4600235A461370854B1B6861
:101190005A1E93415B0002334A463220137001F01D
:1011A0004BFF2378002B00D171E7FFF7CDF800212A
:1011B000380000F0F7FA00230293013301933F3324
:1011C0000022002138000093403300F029FB052362
:1011D000062238000C9900F07DFD734B14261D008B
:1011E00033000A361422380002CDF6B200F072FD48
:1011F0003C2EF5D1380000F07BFA644B9B461B78FF
:10120000002B4ED1624B0593584B98464B460793A3
:10121000534608930D9B9946059B1B78002B3CD1A8
:10122000E0215C4AC90113680B405B490B60042153
:101230005A4B1960FC3113680B42FCD08023506874
:1012400012685B015340E022D2011340524A8021D0
:1012500013600422514B49001A604E4A13680B4236
:10126000FCD05368514A9BB2934200D9EEE08321EF
:10127000C9008B4200D21AE180B2904200D916E137
:10128000884200D2E2E02378002B8ED1322001F098
:10129000D3FE5B461B78002BBED0079B9946089B6C
:1012A0009A4600235A461370304B1B68013B022BB1
:1012B00000D824E105211920FFF748FC01236BE742
:1012C0000021380000F06EFA0023029301330193ED
:1012D0003F330022002138000093403300F0A0FA91
:1012E00005230A223249380000F0F4FC380000F0EF
:1012F000FFF914230A2238002E4900F0EBFC2823C2
:101300000A2238002C4900F0E5FC32230A2238007A
:101310002A4900F0DFFC380000F0EAF91B4B9B463D
:101320001B785D46002B0AD12378002B00D03CE7C8
:10133000642001F081FE2B78002BF5D0AB46002312
:101340005A461370012327E743460F490CCB03C9C4
:10135000FFF7B4FA01231FE7F020002080100020DF
:10136000BD2600209C950010BA2600207C25002078
:1013700004980010989500101C2100207095001012
:10138000B92600200496001024210020BB2600204E
:10139000BC26002000C0044000D0044000E004400F
:1013A000E8FBFFFF78250020980F0020E80B0000E5
:1013B0003895001048950010549500106495001061
:1013C0000121524803680133DC0F1A190A40121B2D
:1013D0000260194236D10A220A2391464C4C2268F7
:1013E0009246511C20D04A451ED0082252449046B5
:1013F0004A46D146AA460692079308944B460A24C9
:10140000DDB2E1B200232A003800013400F0B6F961
:10141000142CF6D101239C46E144C145EED155463A
:10142000069B089C9946079B0A223800394900F020
:1014300051FC4B463800236000F05AF9C82001F0F7
:10144000FBFD8BE6282228239146C7E74B46032263
:101450001B6814260333D917890F5B181A40531AD7
:101460009A464B465246069434001A600A25E6B264
:10147000E9B2002332003800013500F07FF9142D65
:10148000F6D101343C2CF1D153460A229B0053443F
:101490005B001433069C0999DBB2380000F01AFC9B
:1014A000380000F025F9C82001F0C6FDEBE6434600
:1014B00003221B6814260133D917890F5B181A40C1
:1014C000531A9A4643465246069434001A600A2537
:1014D000E6B2E9B2002332003800013500F04EF9DF
:1014E000142DF6D101343C2CF1D153469B005344CA
:1014F0005B0014330A22069C0649DBB2CDE7064A9C
:101500009B009858054A9958D6E6C0467825002091
:10151000A80F00209895001024980010189800102B
:1015200070B506000025AE2382B014360400C178E1
:10153000437532004068AC3B009507F04FFA20231A
:10154000E1786375320060681E3B009507F046FA4B
:101550000123E1786375320060680133009507F07C
:101560003DFA4023E1786375320060683E3B0095A8
:1015700007F034FAA123E1786375320060689F3B7D
:10158000009507F02BFAA823E178637532006068B4
:10159000A63B009507F022FA3F23E17863753200FD
:1015A00060683D3B009507F019FAC823E178637540
:1015B00032006068C63B009507F010FAD323E1784B
:1015C000637532006068D13B009507F007FAE17857
:1015D0003200606865750223009507F0FFF9DA2391
:1015E000E178637532006068D83B009507F0F6F942
:1015F0001223E178637532006068103B009507F0B4
:10160000EDF9D523E178637532006068D33B00952E
:1016100007F0E4F98023E1786375320060687E3B6F
:10162000009507F0DBF9D923E17863753200606833
:10163000D73B009507F0D2F9F123E17863753200CA
:101640006068EF3B009507F0C9F9DB23E17863752B
:1016500032006068D93B009507F0C0F93023E1788B
:101660006375320060682E3B009507F0B7F981235F
:10167000E1786375320060687F3B009507F0AEF952
:10168000FF23E178637532006068FD3B009507F049
:10169000A5F9A423E178637532006068A23B009548
:1016A00007F09CF9A623E178637532006068A43BDB
:1016B000009507F093F98D23E17863753200606837
:1016C0008B3B009507F08AF91423E17863753200AB
:1016D0006068123B009507F081F9AF23E1786375EC
:1016E000606832000095AD3B07F078F902B070BD3C
:1016F00070B5060000252123040082B01436C1789D
:101700004375320040681F3B009507F067F9E178A8
:101710003200606865750223009507F05FF9237851
:10172000E178013B6375320060680223009507F0A1
:1017300055F92223E178637532006068203B0095FB
:1017400007F04CF9E1783200606865750223009576
:1017500007F044F9A378E178013B637532006068D3
:101760000223009507F03AF92369E268E17860689E
:10177000009507F033F902B070BDC04610B5C9003E
:10178000C068D408013161184418415C072010403A
:1017900001228240002B03D01143C9B2217010BD39
:1017A0009143FBE74378F0B5002B1FD007230026B9
:1017B0009C460127047800291ED1002C16D06346D0
:1017C0003D0033409D400023ED43F2080132C468E0
:1017D0000133A15CDBB22940A154047808329C4259
:1017E000F5D801364378F6B2B342E6D8F0BD0136FB
:1017F0004378F6B2B342F9D9002CF7D063463D00E6
:1018000033409D400023F2080132C4680133A15CDB
:10181000DBB22943A154047808329C42F5D8E6E7AC
:10182000F0B5DE46574645464E469B46E0B587B086
:1018300010AB15001A7811AB1B780C00029312AB99
:101840001B7803935B465F19BD4200DB12E1CB08B6
:1018500001339C46531ECB18DBB2D9080131012657
:10186000884607210B408A463100994089465146F7
:10187000029B21408E40002B00D088E0F1438A4635
:101880004946C943894661462B0094460494059510
:101890000191019AD90055185246C6684144745DB9
:1018A000013314404A467455C568DBB26C5C144081
:1018B0006C549F42EDDC6246049C059D13199C42CA
:1018C0002ADA5E46EA0001329046013EAE19F6B2CF
:1018D000F600013607218A460639AB4622008946C2
:1018E000B4461D000197049454464F4643461440A5
:1018F000A740D1085E18C36861449C5D0132BC43B7
:101900009C55C468D2B2635CBB436354AA42EBDB10
:101910002B005D46019F049C039A002A7FD06A1C1D
:10192000791ED2B28A46914279DD611C013BC9B26F
:101930008B4274DD02990235002900D076E0D20096
:1019400001329446A21C90460200E9B21800894672
:101950006346012694464246D4B20727611EC9B2A7
:10196000CA083940370065468F40ED689A1892B230
:10197000A95CB943A954220001349042EDDC4A46E7
:10198000083301329BB2CA4549DD9146E3E79246EE
:1019900062462B00B446049405950192019AD90041
:1019A00055186246C6684144745D013314434A4683
:1019B0007455C568DBB26C5C14436C54BB42EDDB00
:1019C0005246049C059D13199C42A5DA5E46EA0026
:1019D00001329046013EAE19F6B2F60001360721FB
:1019E0008A460639AB4622008946B4461D00019757
:1019F000049451464F46434611408F40D4081E1967
:101A0000C368F9B29F5D64440F439F55C3680132B8
:101A10001E5DD2B231431955AA42EADB78E707B01E
:101A2000F0BCBB46B246A946A046F0BDE9B2D5001F
:101A3000A21C904601228946944601354246D4B202
:101A40000727611EC9B2CA08394067468F4039006E
:101A5000C668AA1892B2B75C3943B1542200013467
:101A60009342EDDC4A4608350132ADB2D145D6DAB3
:101A70009146E3E753188B4200DC4DE75E46EA00EF
:101A8000013E0132AE199046F6B2029AF6000136D6
:101A9000002A00D11EE7A2E7F0B5DE4657464E46C3
:101AA00045460C00E0B5413C95B0192C00D9F4E056
:101AB0003639C90089B28B460124D9080131059114
:101AC000591CC9B28946C90801310691991CC9B28D
:101AD0008846C90801310791D91CC9B28C461F1D1F
:101AE000C9080131FFB25E1D0291F9080131F6B259
:101AF0009D1D0491F108EDB201310191E908013118
:101B00000391D91DC9B28A46C9080131089107213C
:101B10000B9525000B409D404B460C9525000B4036
:101B20009D4043460D9525000B409D4063460E9514
:101B300025000B409D4023000F40BB4027000E4076
:101B4000B74026000F950B9D09930D40AE40B1465E
:101B5000564631408C4011000C9B5D4D0831C9B296
:101B60005D448B46D9430D9B1091D94311910421BB
:101B70000E9B8C46D9430F9B1291DB4308210A9799
:101B800088460B94139353E0109F3C403470069C9E
:101B9000C7681C193E193C5D02270F4200D078E04F
:101BA000119F3C403470079CC7681C193E193C5D6E
:101BB00067460F4269D1129F3C403470029CC7684F
:101BC000E4183E193C5D47460F425AD1139F3C40F2
:101BD0003470049CC768E4183E193C5DCF064CD4B1
:101BE000099FBC433470019CC768E4183E193C5DF2
:101BF0008F063ED40A9FBC433470039CC768E41828
:101C00003E193C5D4F0630D44F46BC433470089CAF
:101C1000C668A24649B25344F418F35C002915DBA8
:101C20000B9901328B43D2B2237001355A4515D03E
:101C3000059CC768D3001C193E193C5D0127297813
:101C40000F42A1D00C9F3C43E4B29FE70B990132B5
:101C50000B43D2B2237001355A45E9D115B0F0BC1F
:101C6000BB46B246A946A046F0BD4F463C43E4B24F
:101C7000CCE70A9F3C43E4B2BEE7099F3C43E4B291
:101C8000B0E70F9F3C43E4B2A2E70E9F3C43E4B2AF
:101C900093E70D9F3C43E4B284E70C00303C092CF1
:101CA00004D82F39C90089B28B4605E70C00613C86
:101CB000192C04D83C39C90089B28B46FCE63A3964
:101CC0004C426141FC244942640021408B46F3E6CA
:101CD00040980010F8B507000E0014001D0014E035
:101CE000220008342B003800E4B2FFF7D5FE2200B2
:101CF0003B78083201369A4202DB00240835EDB207
:101D00002B007A780833934202DA31780029E7D140
:101D1000F8BDC046F0B5C64600B51D006B461700BD
:101D20000E001B7E04002B492800984606F02EFE6C
:101D30000321380000F0B6F90321300000F0B2F9B9
:101D400000220121380000F0C7F9002201213000F3
:101D500000F0C2F98123DB0123800823A3704346EE
:101D60001D480121E3706560206102F02BFA4023D9
:101D7000037040332375E0602000FFF7D1FB2000A3
:101D8000FFF7B6FC6378002B1ED0072300269C4685
:101D900001272178002917D063463D0033409D403C
:101DA000ED430023F208EDB20132E0680133815CBB
:101DB000DBB229408154217808328B42F5D30136B9
:101DC0006378F6B2B342E5D82000FFF791FC80BCFF
:101DD000B846F0BD801A060001040000D0231B069F
:101DE0001B68AC4A9900F0B5DE468B4651585A4202
:101DF00053412F2257464E4645465B4293439A46EF
:101E0000A54BE0B59C4683B000260191E244002931
:101E100038D0A24B99465246F30808339B009D5890
:101E20000123340098460836002D22D00F212000CF
:101E3000294001342D09002919D04B465A469A5899
:101E40000300C240203BDB171340424613420CD133
:101E500007220F000240920097403A00C308904FBB
:101E60003C339B00DA51019B9847002D01D0B442CE
:101E7000DCD3202ECFD103B0F0BCBB46B246A9467E
:101E8000A046F0BD854E5F4600210F23B346CC0827
:101E900022005046083292001258002A00D1D0E0A9
:101EA000180010408046100913421AD05D46ED59C3
:101EB000A94620256D42AC468C446546ED17AC46DC
:101EC0004D46CD40A94665464E4635400126354231
:101ED00004D14646724D3C34A4006651002800D11E
:101EE000AFE01C000440A446140A03421AD0481C68
:101EF00080465846C059464681464D460800F54042
:101F00001F38C01728400125284208D165462D01F9
:101F1000AC46F0086646624D3C3080004651002CCD
:101F200000D18EE0180020408446100B234211D0CF
:101F30008C1CA0465C46E4594646A1464D460C0022
:101F4000F5401E3CE4172C4001252C4200D182E0D4
:101F5000002876D01C000440A446140C034210D084
:101F6000C81C80465846C059464681464D46080022
:101F7000F5401D38C01728400125284275D0002C97
:101F80005FD0180020408046100D23420ED00C1D5B
:101F9000A4466546414CE459EC40A1460C004D4630
:101FA0001C3CE40F2C426AD000284AD01C0004409C
:101FB000A446140E034218D0481D804645463748B3
:101FC000C059E840814608004D461B38C00F2842E2
:101FD00009D165462D05AC4640466646C008304DE1
:101FE0003C3080004651002C2BD018002040844605
:101FF000120F23422AD029488C1D8146C059E04047
:102000008046080045461A38C00F284206D1E0082D
:102010006446234D3C30240680004451002A10D0F1
:102020004846C059CC1DE040844608006546193832
:10203000C00F284205D1E0083C30194C120780003F
:1020400002510831202900D021E714E7002AF8D0F6
:1020500012488146E4E765462D02AC46F408664620
:102060000F4D3C34A400665172E765462D03AC4623
:10207000F00866460A4D3C30800046517FE74546F1
:102080002D04A84664464646E408054D3C34A400A9
:10209000665189E7802000203041014068250020FA
:1020A00000400140094A83009A1810B51468402284
:1020B000544080322240064CC000A44663441A605B
:1020C000044B9C466044416010BDC04604C00140C2
:1020D00004D0014000400140074B8000C3181B683A
:1020E000C90092000A435A400C231340034A944605
:1020F000604403607047C04604C0014004D0014002
:10210000D0231B061B6830B50500584243412F20E1
:102110005B4283430E48EC08844607202840800039
:10212000814020000B4D3C3063448000A4004151AD
:102130001B19002A05D0802292019446634419603D
:1021400030BDC0229201944663441960F8E7C0464E
:102150003041014000400140F8B545469846D02343
:102160001B06DE461C689B462B4B57469A46A3002F
:102170004E469946E0B5534616004A469B5807001E
:102180000D00002B34D04346002B3FD053464A4627
:1021900041469950D0231B061C6863425C412F22A4
:1021A0000720634293431D4A38409446FA081100C1
:1021B000800085403C311A486344890092000D50EC
:1021C0009B18002E0ED08022920194466344012178
:1021D0000D201D6000F01EF9F0BCBB46B246A946BA
:1021E000A046F8BDC0229201944663441D60F3E707
:1021F0004346002BD1D0534641460D209950002232
:10220000084900F069F95B461C68C6E70D200549DE
:1022100000F05CFABAE7C04680200020304101405F
:1022200000400140DD1D00108000002905D0064B54
:102230009C464023604403607047044B9C46402307
:1022400060440360F8E7C04604E0014004F0014048
:102250000123D0228340120693629361094A8300CE
:102260009A1811684022514080320A400649C00045
:102270008C4663441A60054B9C46052360444360CA
:102280007047C04604C0014004D0014000400140F6
:102290008023DB051868000F7047C0460FB400B5F7
:1022A000084883B003F0AEFD049B002B07D005A9BE
:1022B0001800019103F010FC034803F0A3FD012076
:1022C00003F022FC309600104096001070B5EFF33A
:1022D000108C72B60D4D2B68002BFCD0BFF35F8FB6
:1022E0000724CB08C618C05C01230C40A3401C0087
:1022F0000440034207D118433070BFF35F8F2C6056
:102300008CF3108870BD1000FFF7C8FF2C0100D0BF
:10231000F8B54746CE46884680B5EFF3108C72B6C6
:102320001C4D2C68002CFCD0BFF35F8F9A4222D842
:1023300007210126894602E00132934218D34D4617
:1023400037001540AF40D4080119045D2742F3D18E
:1023500010003C430C70BFF35F8F00220D4B1A60DE
:102360008CF3108800280EDBC0BCB946B046F8BD1F
:1023700001204042EFE7BFF35F8F00232B608CF317
:102380001088012040424346002BEDD00898FFF70B
:1023900085FFC0462C0100D0044A1078431CDBB2F4
:1023A000172B00D9102313707047C046AC0F0020C4
:1023B00010B5064B064C82B00100009318221F2373
:1023C0002000FFF7A5FF02B010BDC04644960010E4
:1023D000982000200021044B044ABFF35F8F02C302
:1023E0009342FAD17047C046000100D0800100D06E
:1023F000054B064A1360064A136053609360D3602E
:1024000013615361936170478080808000E400E035
:1024100004E400E01F2318401E3B8340002905D040
:10242000C021044A4900535013607047802201497B
:102430008B50FAE700E100E001228240034B1B6869
:1024400013405A1E9341D8B27047C04600E100E0E5
:1024500001238340014A13607047C04600E200E058
:10246000064B10309B688000C358054A00209B1A19
:102470002F229A424041C0B27047C04600ED00E0B2
:10248000B00F002070B50D00EFF3108672B60F4A42
:102490001368002BFCD0BFF35F8F0D4B10309B688F
:1024A00084001B590B4A934203D09D4201D001F096
:1024B000BBF9074B9B681D51BFF35F8FBFF35F8F65
:1024C0000022024B1A6086F3108870BD240100D0F0
:1024D00000ED00E0CD010010F0B557464E46DE4657
:1024E0004546E0B585B0060000911700EFF3108B6C
:1024F00072B66A4A1368002BFCD0BFF35F8F0025C9
:10250000674B5D579A46002D00DAA9E06B00654CD9
:1025100001935B199B009846A146C1444B46524625
:102520009B7910361370604BB6009B6899590B1B52
:102530002F2B33D95D4B994200D0ACE0019B424632
:102540009C465B4B6544AD0063535A4B0232A21864
:10255000043B9B1A1B05584A5B0D651913436B809E
:10256000564B0121AB80FF23AB71009BEF71AB6039
:102570004B460B4319004C4B9B689951BFF35F8F3F
:10258000BFF35F8F0022454B1A608BF3108805B0B4
:10259000F0BCBB46B246A946A046F0BD01200A00E9
:1025A0008243D3798C46BB4231D845461300444917
:1025B0001B1B5B415943090D3D4B63533D4B02359A
:1025C0006519043B5B1B1B053B4D5B0D2B43AA466A
:1025D0004D466B800425AC465546E044131F4444E9
:1025E0001B1B1B055B0D1D434B46997100999D807C
:1025F00099604946DF71334B01431360BBE75800D4
:10260000C01880002018C179B9422FD902000623D2
:10261000D356002BF3DA02932B4B61460393131D21
:102620009A4604235B429C46E14450464B461B1AA3
:102630001B055B0D9C46204B9571984663464046B2
:1026400003439380019B5A199200039BA418A38013
:10265000029B1C4AA371009B2260E771A3608AE77A
:1026600001F0E2F8002553465D574FE7908802934A
:102670004005131D9A46031561469C464046D444C6
:10268000634604302018181AE0230005400D1B0291
:1026900018430390C5E701F0C7F84FE7240100D0C5
:1026A000BE260020B00F002000ED00E0CD0100109C
:1026B00000A1FFFFE00F002000E0FFFF01BDFFFFD2
:1026C000AAAA00000148804701BD0000F0B5DE461F
:1026D00057464E464546E0B50C0083B0EFF31088F0
:1026E00072B6634A1368002BFCD0BFF35F8F614B57
:1026F00061499A68030010339F00D55901938D42B8
:1027000043D0A54254D05D4EAA1B2F2A3DD85C4B26
:102710009B461B68994601231A009C4682404B4603
:1027200013401F2299466346024093409A468022F6
:102730005B4650469850BFF35F8FEFF305839B468F
:10274000002B37D0019B5B4501D001F06DF80123D0
:102750002A009A439068844208D176E04B005B18C7
:102760009B00F3189868844236D01A00062151560F
:102770000029F3DA844254D04B46002B27D0C022E4
:1027800051463F4B5200995019603A4B9B68DD51BE
:10279000BFF35F8FBFF35F8F0022354B1A6088F362
:1027A000108803B0F0BCBB46B246A946A046F0BDB7
:1027B0000D00EAE72A0063469A4390688442D5D127
:1027C00006201056130000280ADA0D0031E080239D
:1027D00051462B4AD150D8E706201856002821DB55
:1027E00042001118890074188B46A1689960E1793C
:1027F000D971062161569971002924DBA488F11A48
:10280000640524155C44091909051E4C490D214332
:10281000998013181C4A9B001178F3189971107055
:10282000AAE713005946002914D1FF3191711749C5
:10283000918015490A789A71154A9B1B5B415A434E
:10284000120D0A7098E71149E2E7062010561300AE
:102850000028C5DA0F4A1049D21A083A5002400D32
:10286000014399800D4952080A43DA8084E7C04643
:10287000240100D000ED00E0CD010010B00F0020D9
:1028800000E100E000E0FFFFBE26002001BDFFFFE9
:10289000AAAA0000EA0F002000F0FFFF00F8FFFFE7
:1028A00070B501240443EFF30581EFF3108C72B689
:1028B000214A1368002BFCD0BFF35F8F1F4B05002C
:1028C0001F4AED1A6D416A43120D1E4D8900AE6814
:1028D00052B27658A6421CD00621595691421CD0BD
:1028E00012215956914222D01E215956914220D090
:1028F0002A2159560324914210D0134B19781A708B
:102900008171BFF35F8F00220B4B1A608CF310882C
:1029100070BDAB680D4C5C50EFE7002461000919F5
:1029200089005B18FF21997109499980E5E7012425
:10293000F4E70224F2E7C046240100D0B00F0020E3
:10294000AAAA000000ED00E0BE260020CD01001084
:1029500001BDFFFF10B5084B084C82B00100009389
:10296000002205232000FFF7D3FC002801DB1F23F2
:10297000181A02B010BDC04660960010C226002092
:10298000024B9C466144890001607047400000345E
:1029900070B5114C114DAC420FD2FF262368002BAD
:1029A0000CD0FFF7F9FC01002000FFF7E9FFA6803B
:1029B000BFF35F8F0834AC42F0D370BDFFF7ECFC7F
:1029C00001002000FFF7DCFF2671BFF35F8F0834A2
:1029D000AC42E3D3F1E7C046E8150020F015002033
:1029E00010B50400FFF7D8FC01002000FFF7C8FF76
:1029F000FF232371BFF35F8F10BDC04610B50400E5
:102A00000120FFF7D5FC034BC3189B002360BFF3E5
:102A10005F8F10BD40000034034B9C466144890029
:102A20000160BFF35F8F7047400000340A4B1968A4
:102A3000EFF3108072B60A68002AFCD0BFF35F8FF4
:102A40001B68BFF35F8F00221A6080F3108840BFBD
:102A5000002000217047C04684260020F0B5DE46E5
:102A600057464E464546E0B587B0EFF3058303224F
:102A700001251A40954091008846A946B34B039220
:102A80005C58B34B1D60B34B04934B46B248436351
:102A90000823E55E002D37DAA3881BB2002B00DB8C
:102AA000ADE0A379002B00D0EEE00823E05E002823
:102AB00020DB430062691B18DB00D3189E68DD68C9
:102AC000731C00D111E1A44801004144826A0B69E2
:102AD000B71A9B1A9F4215D30123026A03988340B9
:102AE0001A420FD09C4800F0B5FB8D4202DCCCD1DD
:102AF0008642CAD940BF07B0F0BCBB46B246A94621
:102B0000A046F0BD0E61EDE762696B0092465B196D
:102B1000DB009A4453469E68DF6800F09BFB8F42BF
:102B2000BADC00D103E1002F00DAE8E05246534658
:102B300052691B699346049A934200D1D9E05246E8
:102B40000821605E5288000459461043984700905F
:102B500001910099019A0B001000134300D1CEE0BF
:102B600013000A00B61A9F41002806DB7A4800F0DD
:102B700071FB009E019F36184F4153469E60DF60F7
:102B800000229A5E002A00DA86E7530099186069ED
:102B9000C900411802938B68C9689B46B94200DDA1
:102BA0007AE702D1B34200D976E708239C46A444D1
:102BB000059565462281A446029B2C0006E0530041
:102BC0009918C90041188D68C968AB469B18DB008D
:102BD000C318B94206DC00D1B3E01C000023E25E5A
:102BE000002AECDA230064469C4653461A8063466A
:102BF000059D1D80A3881BB2002B00DA51E72269D6
:102C0000EFF3108172B61368002BFCD0BFF35F8F17
:102C10000123A7885B42A3803FB22369BFF35F8F84
:102C200000221A6081F31088002F00DA39E72300B0
:102C3000083322009A4666697B00DB19DB00F31833
:102C4000996850468C460824115FDD68002910DB26
:102C5000029306E0AB4244D00023E15E200000294D
:102C600006DB4C006418E4003419E368AB42F1DD84
:102C7000029B078000201F5E1980002FDCDA140001
:102C8000A379002B00D110E70023A37126000823AD
:102C9000E15E08364B1C00D12CE70800A2466569AE
:102CA00002E03E004B1C1AD04B005B18DB00EF1813
:102CB0000A008C46E95E7B881BB2002BF1DA012307
:102CC0005B42DC17BB60FC60824205D0534631801A
:102CD0001B893B8053461A8160464B1CE4D1544605
:102CE000E5E6A3686345B7D9C2E76B1C00D0EAE606
:102CF000F8E65B4658461B69984700281BD15346A7
:102D00001B8822692381EFF3108372B611680029B2
:102D1000FCD0BFF35F8F514662880A8022696580CC
:102D2000BFF35F8F0021116083F31088B4E6864201
:102D300000D8F8E6B0E65B461A685B68009201933B
:102D400007E7B34500D848E74CE7C04658250020C0
:102D50003C7005405D2A00100040054070B52E4CC7
:102D60002569002D04D00A212C48FFF709FE70BD0B
:102D70002B4E0321300000F063FAE660FFF70CFBF6
:102D8000284B03229C46D02322701B061B6801217E
:102D90006370254B6044A3600F23800020610220F4
:102DA000638063694942A1801980023119864731E5
:102DB0001D83585218315A5275325C399952183263
:102DC0000131995218320131995218320131995218
:102DD000083518329D520231183299521832013199
:102DE00099521832013199521832013199521832E0
:102DF000013199521832013199520C4B0C49DC6067
:102E000001303562FFF73EFB01210320FFF702FB93
:102E1000084B1D60A7E7C046F80F0020842600205D
:102E20000040054040000034FFFF100058250020FE
:102E30005D2A00103860054000487047F80F0020F8
:102E4000F8B51F0008AB1B7804001600002B08D152
:102E500000F008FA32003B00121A8B41002B00DA16
:102E600052E02269EFF3108072B61368002BFCD099
:102E7000BFF35F8F0223E15E63694A005218D200FC
:102E80009B182269002936DB1D886580BFF35F8FA0
:102E90000025156080F31088069A9E60DF601A6135
:102EA000079A5A615A8801325204520C101C002AA7
:102EB0001FD082B25880080410432669EFF31087B0
:102EC00072B63268002AFCD0BFF35F8FA2881A80E6
:102ED000A1802369BFF35F8F00221A6087F31088F7
:102EE0000A4923788C4601329A40E36863441A60A9
:102EF000F8BD0120DDE7BFF35F8F0023136080F38F
:102F0000108801204042F3E70020F1E73C20000058
:102F100070B501000469EFF3108C72B620680028C8
:102F2000FCD0BFF35F8F02200D5E4C696800401932
:102F3000C00024180869002D36DB26884E80BFF3B8
:102F40005F8F002606608CF31088E3606388049826
:102F5000013320615B0405985B0CA26060611A1C60
:102F6000002B1FD093B22804628018430A69EFF344
:102F7000108C72B61368002BFCD0BFF35F8F8B8868
:102F800023808D800B69BFF35F8F00221A608CF362
:102F900010880B7801329A40CB6808498C4663440C
:102FA0001A6070BD0122DDE7BFF35F8F002303606D
:102FB0008CF3108801204042F3E7C0463C2000001B
:102FC00010B543890A1493421ADD53009B184269D5
:102FD000DB00D3180469EFF3108C72B62268002A64
:102FE000FCD0BFF35F8F5A88090494B2090C8A425F
:102FF00008D00369BFF35F8F00221A608CF310883A
:10300000002010BD8022120214435C80012302695B
:103010008371BFF35F8F002111608CF31088044926
:1030200002788C469340C268012062441360E8E74E
:103030003C20000040787047F0B5C64600B582B02D
:10304000040000F00FF9FA2206000F002000002310
:103050000021920001F068F88019794104000D1EEA
:1030600002DA01242E4D644206267642F7173619FD
:103070006F41AF4214D811D000F0F4F832003B0099
:10308000121A8B41002B15DC002B46D020002900A2
:1030900000F026F902B080BCB846F0BDA642EBD9DC
:1030A0000026002700F0DEF832003B00121A8B41A8
:1030B000002BE9DD00F0D6F832003B00121A8B41FC
:1030C000002B0ADB00230193164B320000931648B5
:1030D0003B00FFF71DFF0130D8D000233900B04678
:1030E0009C46124A1248536A994204D8966A464549
:1030F000CCD29942CAD10668EFF3108772B6336812
:10310000002BFCD0BFF35F8F0368BFF35F8F664671
:103110001E6087F3108820BFE5E7002AB6D0C9E714
:10312000FFFFFF7F2D2A0010F80F00200040054010
:1031300084260020F0B557464E46DE464546E0B5AB
:1031400006000F0085B0EFF3058399468B46002BF0
:1031500012D0384900204B6ABB4206D38A6ADB1B77
:10316000591E8B41B2424041184305B0F0BCBB46EA
:10317000B246A946A046F0BD2F4B9A46DB6898465A
:1031800053461B784046039300F064F84246039B85
:10319000040004339B009B580D001B1A39003000BB
:1031A000001BA941894510DC0DD020BF214A002019
:1031B000536A5B45D9D3926ADB1B591E8B41B242DD
:1031C00040411843D1E78342EFD900F04BF8320079
:1031D0003B00121A8B41002B1ADB00230193174B83
:1031E0003200009350463B00FFF792FE011E0FDDB8
:1031F000104B5A6A5A451BD39B6AB34216D35046AA
:10320000FFF7DEFE0B4A0020536A5B45ADD3D2E7E1
:10321000084A0020536A5B45A7D30020926ADB1B53
:10322000B24240415A1E934118439EE75A45E6D1A7
:1032300020BFE4E700400540F80F00202D2A0010D1
:1032400010B5024A0248FFF741F810BD7C96001005
:103250009C2000200300416A0A00986A596A8A4249
:10326000FAD17047034B596A0A00986A596A914229
:10327000FAD170470040054070B504000D00174AB0
:10328000536A1900966A536A8B42FAD130001900CA
:1032900024184D41AB4216D813D0104B2A005B6A5C
:1032A0009D4203D90D494B6A9342FCD3934207D107
:1032B0000A4A02E0516A994202D1916AA142F9D3C5
:1032C00070BDA642E9D9054B5B6A1C005A1CEFD0C1
:1032D000012201246442E5175242E3E70040054021
:1032E000064A536A9942FCD807D1044B02E05A6A55
:1032F000914202D19A6A9042F9D870470040054045
:10330000F8B5040006200D0000F078F9002844D03C
:10331000374B3849E3185A1E9341802212049446D1
:103320005B429B0D344A9B0563441360334A136030
:1033300018000A689043FBD12D4B314AE3185942DB
:103340004B4180215B0049000620995200F056F95C
:103350002900C00000F06EFB0130C3091ED14027D8
:1033600001226262A362266BF30722D4E36A254B33
:103370000620E51800232B60266300F03FF9390092
:10338000800000F057FB7023E26A5A400E3313406E
:103390002B601D4B23630323A364F8BD1B4A934298
:1033A0001ED900231A4A1B4F6262A362266BF307E1
:1033B000DCD5194B144AE3181A60656AA36A062023
:1033C000AD01ED1800F01AF9144900F033FBAD021D
:1033D0000100280000F02EFB0021FFF74DFFC5E79C
:1033E0004006800E9F011A003F180300B9E7C0464F
:1033F0000080FCBF08C0004000E0004000F000403A
:103400009C2600202C10000001030000FEFF00009D
:10341000FFFF0000C0FF3F00303000004E0E0000F4
:10342000F8B5DE464E4657464546E0B58B460500A4
:103430000A991800160000F0FDFA0A9B6C001F02A2
:10344000324B64199C46A4006444636881469F42E1
:1034500000D967602B1FDBB29846012B30D9C023FF
:1034600080229B01E31812011A60294BAD005959C3
:103470009A4600291BD17301E026226853401E4062
:10348000802342465B01E3181E60012A30D9802365
:1034900080229B01E31812011A6053464A46676076
:1034A0005A51F0BCBB46B246A946A046F8BD586981
:1034B00000F0C0FA013043001B18033BFDD2DAE7ED
:1034C0005B46012BCBD1C02303229B01E3181A607A
:1034D000023AA3681A42FCD07301E0262268AD00CC
:1034E00053401E4080230A4A5B019246E3181E6047
:1034F0005A462168514003220A401A6001225B4665
:103500009A40A3681A42FCD0C1E7C0460080004040
:10351000A0200020F0B546464F46D646C0B51F0055
:10352000344B44009C462418A400644463688846D5
:103530001600FF2B02D880235B006360031FDBB201
:103540009A46012B30D9C02380229B01E318120137
:103550001A60294B85005959994600291BD17301DE
:10356000E026226853401E40802352465B01E31848
:103570001E60012A30D9802380229B01E3181201AA
:103580001A6080235B0063604B465F51E0BCBA4623
:10359000B146A846F0BD586900F04CFA013043002E
:1035A0001B18033BFDD2DAE74346012BCBD1C023E6
:1035B00003229B01E3181A60023AA3681A42FCD066
:1035C0007301E0262268850053401E4080230A4A8A
:1035D0005B019146E3181E60424621685140032278
:1035E0000A401A60012342469340A2681342FCD06D
:1035F000C1E7C04600800040A0200020014B8000B1
:10360000C0587047A0200020F8B5040021481E00D3
:1036100017000D0000F00EFA0100380000F00AFA61
:10362000069B36041B031E432368002B20DB1A4B2A
:103630001A49E3185A1E93418022920194465B4234
:103640001B0B174A1B0363441360164A13601F00C9
:103650000A689743FBD1144B2560E2182123A06030
:1036600013602368002BFCDA0823E6601360F8BDC2
:103670003F2322681340AB42D9D1A3681B051B0D21
:103680008342D4D1EE22E368D2021340B342CED1BA
:10369000EDE7C046001BB7000040FDBF08C000407A
:1036A00000E0004000F000400430000010B580242D
:1036B0001C4BE4051C6000281AD001231A4C184347
:1036C0001A4BDC611A4C44401C625962986280219A
:1036D000144BC9051960174817490860E021C9044F
:1036E0001960002A07D18022144B12061A6010BDFF
:1036F0000E4BD861EBE753019B1A9B009A1880236D
:1037000012015B049A4209D213000D490B60074B6A
:103710005A608022094BD2051A60E8E7094B1A006B
:10372000F3E7C04600B00540D3C007B000800540B5
:103730002D3FF84FFCFF01000820014000A005408C
:1037400030250020FFFFFF008023024A9B000B432F
:10375000D362704700800540002310B50100988AAD
:103760001B8B984710BDC046162310B50100188862
:1037700002331B88984710BDF8B54746CE4680B542
:103780000F1E18D014239946043304000025012687
:1037900098464B461888434621681B88984701C4C1
:1037A000431E984101350640AF42F2D13000C0BC03
:1037B000B946B046F8BD0126F8E7C046002370B50B
:1037C00004000D00988A03491B8B984729000300C9
:1037D0002000984755420000002370B504000D00FA
:1037E000988A05491B8B984703000020002C01DBB9
:1037F0000130A0402900984755420000AA23064AFC
:103800001B0113608D235B00D3600449044B1960D6
:103810005368002BFCDA70470040024000B0FA0009
:10382000006002407047C04610B50148FEF736FD03
:10383000A096001070B5074D074EB54209D200247E
:10384000013E761BB60808CD984723000134B342E9
:10385000F9D170BDF09400102C950010054B064A6C
:1038600006491A60064A074B1A6010000B68984315
:10387000FBD1704700E00040BFCDFBFE08C0004018
:10388000FE7F3C0000F00040044BDB6C002B03D1BA
:103890008022034BD2021A607047C04600001150CC
:1038A0004C201150044A054B1A60054A1368DB018D
:1038B0008033FBD17047C046FFFFFF0100F000409E
:1038C00008C000404022034B9A675A671A67DA66BD
:1038D0007047C04600F0014010B5FEF77BFD10BDFB
:1038E00070B5044D044CA968C022200000F08CFC87
:1038F000AC6070BD00ED00E000000020002310B5BA
:10390000294C82B0A367FFF779FF0122274B1A6089
:10391000636C012BFCD10322254B1A60224A936B66
:10392000012BFCD1013300930121224A22480433A8
:10393000FFF76AFE052301210093204A2048FFF784
:1039400063FE0022022104201E4BFFF7E3FD00224C
:10395000012105201C4BFFF7DDFD0022002107207F
:103960001A4BFFF7D7FD002200210820174BFFF765
:10397000D1FD8023DB000093002200210920134B9E
:10398000FFF74EFD0022104B00210620FFF7C2FD7D
:103990000420FFF733FE0E4900F04CF80100002030
:1039A000FFF7D2FE02B010BD008000403CB00040E6
:1039B00030B00040002F685900800240008C8647DC
:1039C00000C00240001BB70040597307006CDC02C6
:1039D00040420F0001480421014B184710100020FD
:1039E00079370010124A936F9B0815D29066D16602
:1039F000002905D0FFE7FFE7FFE7516F106F704721
:103A000004B580210906C2175140002800D0C843E0
:103A100005F036FD002104BDF0B5146E556E576FEC
:103A2000166FFFF7E3FF1466556657671667F0BD1C
:103A3000000000D0114A936F9B0813D210665166A4
:103A4000002905D0FFE7FFE7FFE7516F106F7047D0
:103A500004B5002801D00020C04305F011FD00216D
:103A600004BDC046F0B5146E556E576F166FFFF764
:103A7000E5FF1466556657671667F0BD000000D075
:103A800094464A4A926F9208624601D228E0C046A4
:103A9000F0B5464E346E756E776F366F00F020F8D5
:103AA0009446424A14665566576716676246F0BDEB
:103AB00094463E4A926F9208624601D254E0C04654
:103AC000F0B53A4E346E756E776F366F00F04CF885
:103AD0009446364A14665566576716676246F0BDC7
:103AE000002B24DB11D000293EDA00B5C943404247
:103AF00000D1013100F038F8C943404200D1013112
:103B0000DB43524200D1013300BD002AEBD1002833
:103B100001D1002905D00020C90FC90701D1C04338
:103B2000410800B505F0A4FC0022002300BD00B54B
:103B300000290ADBDB43524200D1013300F014F8C4
:103B4000C943404200D1013100BDC943404200D1C8
:103B50000131DB43524200D1013300F005F8DB4371
:103B6000524200D1013300BD002923D1002B18D1CE
:103B7000002A0CD0BC460D4F38667A66002100231F
:103B8000FFE7FFE7FFE77A6F386F67467047002867
:103B900001D00748010000B505F06AFC00220023AF
:103BA00000BD02000B00002000217047000000D083
:103BB000FFFFFFFF002B00D0BFE0130C28D1002A2D
:103BC000E7D080B4114F39667A66FFE7FFE730B47B
:103BD000040C7B6F396F1B0423433B667A66FFE757
:103BE000FFE7FFE7C04684B27B6F3D6F1B042343B2
:103BF0003B667A66FFE7FFE7C04600232C042D0CE6
:103C00007A6F386F00196941B0BC7047000000D06E
:103C1000F0B594460025140E01D112020835140F98
:103C200001D112010435940F01D192000235D40F55
:103C300001D152000135D40B0134254F7C66254C4F
:103C40003C660E0C93B2FFE7FFE7FFE73C6F66436D
:103C5000360C7703BE467343DF0B5B04C01AB941D1
:103C6000130C7343DB18C91ACE086643360CB644EE
:103C700093B273431F0F1B01C01AB941130C734356
:103C80001F0B1B05C01AB941860D8F023E436643C8
:103C9000360C092D24DB520A7243801A7703460A38
:103CA0006643360C16235B1BDE40DF40BF196446BB
:103CB0006643821B7046043506330100D940A84094
:103CC000C01900D30131A24206D20023F0BD00008A
:103CD000000000D0FFFFFFFF121B0130F3D3F1E71C
:103CE00009277F1BFE406446A2B27243801A00D2AD
:103CF0000139220C7243130C1204821A99410B00F1
:103D00007046043513370100F940A840801900D3EC
:103D10000131002B02D1A2420AD2F0BD013000D302
:103D20000131121BFAD2013BF8D1A24200D2F0BD00
:103D3000013000D30131121BF7E7F0B51C0C00D0A5
:103D400080E00CB400251C0A04D11B02160E33437C
:103D5000120208351C0B04D11B01160F334312014C
:103D600004359C0B04D19B00960F3343920002351F
:103D7000DC0B02D192185B4101351C00971864419D
:103D80000134464F7C66464C3C660E0CFFE7FFE76D
:103D9000FFE7C0463C6F6643360C7703BE4697B2DA
:103DA0007743C01B00D20139C01B00D201399FB23A
:103DB0007743C91BC91B170C77437E04FF0B801B7D
:103DC000B941CE086643360C0C2D33DBB644120BDA
:103DD0001F053A431B0B97B27743C01B00D2013932
:103DE0009FB27743C91B170C77433E043F0C801BDF
:103DF000B941860D8F023E43664329277F1BFE4053
:103E00000C3D7746AF40BF1930BCA2B2ABB2724393
:103E10007343801A9941220C7243130C1204801AC6
:103E2000994102000B000137001BA941F9D2781E0D
:103E30000021F0BD0C277F1BFE4077467F0BAF4073
:103E4000FF19E0E700245D1C07D0144F7D6639663A
:103E5000FFE7FFE7FFE7FFE73C6F95B29EB26543E0
:103E60006643401BB141150C1E0C65436643360486
:103E70002F0C3E432D04401BB141994204D2020055
:103E80000B0020000021F0BD01D19042F7D3801A31
:103E9000994101349942F2D3F6E70000000000D0C6
:103EA000FFFFFFFF48404140484018B4134B5B6898
:103EB000019308BD18B4114B1B68019308BD9446CB
:103EC0000F4A926F920805D2624618B40B4BDB681A
:103ED000019308BD0A4AF0B5146E556E576F166F00
:103EE0006246FFF7F2FF064A146655665767166783
:103EF000F0BD18B4014B9B68019308BD78170020F2
:103F0000000000D0FFB550404240504059404B4067
:103F1000594000E0FFB5154F4C00640D03D0BC4282
:103F200004D10C0314D80020090D09055C00640DB0
:103F300003D0BC4204D11C030AD800221B0D1B0570
:103F400001264B4009D44B4003D58B4200D182421D
:103F5000FFBD9942FCD19042FFBD0B43DB180343E8
:103F60001343F5D0C9434918FFBD0000FF07000007
:103F700000B5FFF7CFFF804100BDC04600B5FFF799
:103F8000C9FF01D9002000BD012000BD00B5FFF729
:103F9000B9FF01D9002000BD012000BD00B5FFF729
:103FA000B1FF804100BD012040054A00121804D82D
:103FB0005A00121801D800207047012070470000F5
:103FC0000021002805D17047C1174840401AFAD097
:103FD000C90713B5064B1B6898470CBC441CA2408C
:103FE0001005120B0349091B09051943114310BDA4
:103FF000802500201F04000010B54C00620D8023B6
:10400000D218DB00D21A5B057E2A10DD9E3A13DA45
:10401000CC170903490819435242D14064000134C6
:104020001532202A05DAD0400843604310BD002035
:1040300010BD0846604310BDC80FC018013810BD40
:1040400018B4024B5B6A019308BD0000781700208A
:1040500010B50148FEF722F9AC960010132370B595
:104060001D78012D19D014DD1D48FFF77DFB0600DA
:104070001C48FFF779FB1C4C80223100200000F027
:10408000C3F8022D06D01948FFF766FB184B1860DD
:1040900070BD154C174BA364F5E7174B124C23600A
:1040A0006360A360E36023616361A361E3612362F2
:1040B0006362A362E36223636363A363E3632364D2
:1040C0006364A364E36423656365A365E3652366B2
:1040D0006366A366E36623676367A367E367D9E75D
:1040E0005344000053460000781700204C33000072
:1040F00080250020FD4000105140001007B56046AB
:1041000001880A0A0230DF2AFAD1C9B2820804D330
:10411000028840880004104300E00068014A5050C3
:10412000039007BD7817002051434343C9188C46BC
:10413000110C83B24B4310B4040C614392B280B2B1
:10414000504362431C041B0C001910BC594113045A
:10415000120CC018514161447047000010B501486D
:10416000FEF79CF828970010132310B510481C7810
:10417000FFF7FAFA0100012C0AD003DD80220D4876
:1041800000F042F80C48FFF7E7FA0C4B186010BD3E
:10419000084C5422200000F037F8220008498032F1
:1041A0002368002B00D1216004349442F8D1E9E760
:1041B00053460000842500204C3300008025002059
:1041C0005D41001070B505000C0004F02DFC6C433F
:1041D000002804D0034B04199C4200D870BD02484B
:1041E000FEF75CF800000420C4960010014804218A
:1041F000014B18472010002079370010014B1B6835
:104200001847000020100020014B5B681847000091
:10421000201000209A4200D2885470477047C04650
:10422000F8B55746DE464E464546E0B599460A9BE8
:1042300007009A460D9B884693460B9C9B073BD1F3
:104240000C9B9C423DD21E1B0B9415000C005E443F
:104250002A004B46013521002020B847B542F7D14E
:10426000A0460B9C002C20D0454636195346321BE5
:10427000013C185D29004B46B847002CF6D12B00B5
:10428000350098460D9B9B070FD55B46EC1A0C9B9F
:10429000A3420AD9464698462A004B4631002020C0
:1042A0000134B84701354445F6D32800F0BCBB467D
:1042B000B246A946A046F8BD16001500002CD3D181
:1042C000E0E716001500002CCED1EEE7F0B545462C
:1042D000DE4657464E46E0B585B09C4610AB1B788F
:1042E000149F934698460F9C129E139DBB074CD477
:1042F000002D42D1B44248D201233B4099460E9B47
:10430000013B9A46302304E0524601341355A6423D
:1043100001D9202CF8D14B46002B00D183E00E9B15
:10432000013B99463023A54205D82EE04A46013488
:104330001355AC4229D0202CF8D1FB060CD57B05B7
:1043400054D4A64263D0A54261D0119B102B50D00B
:10435000022B57D0202C32D1202301930E9B5A469A
:104360000093039763460295FFF75AFF05B0F0BC30
:10437000BB46B246A946A046F0BD01233B40994644
:1043800001233B422AD1B442B9D3FB061CD57B059D
:10439000DBD4002CD5D1119B102B5BD0119B022BB1
:1043A0006BD0302301240E9A13704346002B10D19A
:1043B0007B073ED52B260E9A631C1655CDE72300AE
:1043C000013430260E9AD654202CC5D04346002BFB
:1043D000EED02D260E9A631C1655BEE74346002BE1
:1043E0002FD0013DB44200D289E798E7119B102BF2
:1043F000B2D1BB0637D5202CAED058230E9A135518
:104400000134A7E7202CA7D02300013407E0631E66
:10441000012CC0D0119A102A31D0022AD1D16226A3
:104420000E9AD65496E7FB06CED57B0500D488E7D6
:104430008BE723003E0790D520260E9A01331655B0
:104440008BE70C233B405A1E9341ED1AB44200D235
:1044500055E764E7BB060ED478230E9A0224137046
:1044600030235370A1E7202C00D175E778230E9AF2
:10447000135501346EE75823EFE76033EDE70E9AEA
:10448000A61E91464E44BA0602D55822327098E7CD
:104490007822327095E7C04610B5002800D110BDD3
:1044A00001F066FCFBE7C046F0B55746DE464E46D7
:1044B0004546E0B595B083460F00924698461E9A51
:1044C0001F9B10001900209EFFF76DFD002800D0F3
:1044D000EAE11E981F990122C54B5242FFF748FDA1
:1044E000002800D014E11E981F990122C14B5242AE
:1044F000FFF754FD002800D0E9E01E981F99002224
:10450000BD4BFFF74BFD002800D0C8E01E981F9957
:104510000022BA4BFFF72CFD002800D0BFE01E9808
:104520001F9900220023FFF723FD002800D0E4E0BC
:1045300000230B93229B5B0500D406260024302326
:1045400007E0172106AA013452181355013E202C0A
:1045500001D0092EF5D81E981F99FFF74DFDA84BE5
:10456000F2009B181A685B68050008920993FFF730
:104570002BFD02000B001E981F99FFF796FC089A6E
:10458000099BFFF7B6FC06900791FFF759FD81469E
:10459000FFF716FD02000B0006980799FFF785FC50
:1045A0000022984B06900791FFF7F8FC002800D1F5
:1045B0000DE101239C46E1444846FFF701FD02005E
:1045C0000B0008980999FFF7D9FC002802D00023B6
:1045D00099460135002E00D1D9E006954D46B946E1
:1045E00014E006AA944617230A21634428000134E4
:1045F0001F19FFF71FFA3031397028000A21013ED8
:10460000FFF718FA092D00D817E10500202CE8D192
:104610004F46069D20240CAE06AA172394466344F9
:1046200099465B46B34606930FE04B4628000A21A5
:104630000134E618FFF7D6F93031280031700A212D
:10464000FFF7D0F9051E00D1E4E0202CEDD1069B48
:104650005E469B460323229A1340012B18D1219BCF
:10466000002B15D00B9B002B00D1FDE0219B013BC3
:104670002193202B0CD93023219A07E0172006A97B
:10468000013409180B55944200D3CCE0202CF5D10D
:10469000229B01940393219B0096029322E0229B8C
:1046A00052460493219B3900039358461E9B1F9C3E
:1046B000029600930194434600F04AF9040020005A
:1046C00015B0F0BCBB46B246A946A046F0BD229B41
:1046D0005B070FD403224C4B22990192039121993D
:1046E000009302914346524639005846FFF798FD21
:1046F0000400E4E70422454BEEE71E9A1F9B0020CE
:104700000021FFF7D2FB01231E901F910B9311E7AD
:10471000229B54469B0711D1219B042B0ED9219B30
:1047200055469C465E46043C64442A004346013597
:1047300039002020B047A542F7D1B346344D2600BA
:104740002B1F99465B46A3461C003200E87843467F
:104750003900013DA04701364D45F6D123005C46A6
:104760009B46229B04349B07A9D55346219AE31A02
:104770009A42A4D95E461500220043463900202003
:10478000B04753460134E31A9D42F5D897E7280015
:10479000FFF71AFC02000B001E981F99FFF785FB1C
:1047A0000022184B06900791FFF7E2FB0CAE0028A1
:1047B00000D031E7069807990022124BFFF7EEFB75
:1047C000002800D028E7012301359D4324E700227B
:1047D000069807990B4BFFF7CBFB002800D0F9E6B2
:1047E0004B46002B5CD101239C46E144F2E6C046D7
:1047F000FFFFEFFFFFFFEF7F65CDCD4165CDCDC161
:10480000589C00100000E03F2C97001024970010E7
:1048100034970010069B5E469B460323229A134062
:10482000012B00D181E0202C00D131E70B9B002B24
:1048300027D02D23335501342AE74F46069D202CDF
:1048400000D1E7E63022331907E0172006A901342A
:1048500009180A55202C00D1DCE6A342F5D12E22FE
:104860000CAE0134F254D7E60C23229A134257D0EF
:10487000219B013B2193A34200D9FCE6202C00D1CF
:1048800006E7229B5B0703D52B2333550134FFE654
:10489000229B1B0700D4FBE6202333550134F7E6A7
:1048A000DB0700D496E69EE7229B55469B0711D175
:1048B000219B032B0ED9219B54469C465E46033D0B
:1048C000654422004346013439002020B047AC4201
:1048D000F7D1B346B9465F461C4EEC1C2A00B078AF
:1048E000434649460135B847013EAC42F6D1229BCA
:1048F000BB464F469B0700D4E1E65346219AE31A94
:104900009A4200D8DBE65E46150022004346390095
:104910002020B04753460134E31AAB42F5D3CEE62C
:10492000219BA34200D9A6E6B2E6219B002B00D131
:1049300079E70B9B002B97D0219B013B21939C4255
:1049400000D298E6202C00D073E7A1E63097001043
:10495000F0B5DE4657464E464546E0B599B081462D
:104960008B4692469846229A239B10001900FFF727
:104970001AFB002800D0CAE0229823990122824B1A
:104980005242FFF70BFB002800D0C0E02298239989
:1049900001227E4B5242FFF7EBFA002800D0B6E02E
:1049A0002298239900220023FFF7E2FA002800D082
:1049B000C9E1229B239C08930994089809998023B4
:1049C000269ADB001A400D928022269C1201144088
:1049D00022000B94269C07000E001C4200D0ADE084
:1049E0000B00034300D0D5E0002A00D00AE22200E9
:1049F00006332493022313400C930223134200D066
:104A000002E2259B042B00D20FE2043B0B93002310
:104A100004250A930022229823990023FFF7A8FA7D
:104A2000002800D003E25A4B269A134004930B9BB4
:104A30000393249B0293089B099C0093019459467D
:104A4000434652464846FFF72FFD02002020269B92
:104A50001F27034059424B415B421840531C0893A7
:104A6000594643464530C8470A9AD317D4185C4084
:104A7000D30F0A936B1E0B9308AB9C46002567442B
:104A800001E0202D0FD020000A21FEF7D3FF0135D1
:104A90007E193031317020000A21FEF7CBFF26004D
:104AA0000400092EEDD8052306930B9B5946059368
:104AB000002304930A3303930A9B4846029310ABE6
:104AC0000093089A43460195FFF700FC0C9B002BCE
:104AD0002DD05346C41A259BA34228D94D465F4684
:104AE00081461E00534639001A19202043460134DE
:104AF000A847A642F6D8534648462599C21A01321D
:104B00000023914200D386E1013018180FE0269B64
:104B10000493259B0393249B0293229B239C009345
:104B200001944346524659464846FFF7BDFC19B02A
:104B3000F0BCBB46B246A946A046F0BD01432BD10E
:104B40000B9B2200002B00D154E700230A93249BE7
:104B50000A9A0024934200DD85E1229823990022DD
:104B60000023FFF705FA002800D035E1269B084A0C
:104B700002941A408023DB0013430493259B039384
:104B8000089B099CCBE7C046FFFFEF7FFFFFEFFFCD
:104B9000FFF7FFFF06232493B44B70009C46400DA3
:104BA0006044FFF711FAB24AB24BFFF7A2F9B24ADA
:104BB000B24BFFF77FF93603B14B360B334304009A
:104BC0000D00380019000022AE4BFFF76EF9AE4A17
:104BD000AE4BFFF78EF902000B0020002900FFF713
:104BE00069F9FFF709FA0A90FFF7EEF9A84AA94B0D
:104BF00004000D00FFF77DF90022A74BFFF75AF9DB
:104C0000FFF7FAF9A54A0600A54B20002900FFF797
:104C100070F9040030000D000C96FFF7D5F9A14A99
:104C2000A14BFFF766F902000B0020002900FFF7F7
:104C30003CF902000B0006000F00FFF75AF93200A2
:104C400004000D003B0030003900FFF733F900226B
:104C50000E900F91954B20002900FFF730F90022AC
:104C6000934BFFF727F902000B0020002900FFF704
:104C700026F900228F4BFFF71DF902000B002000E0
:104C80002900FFF71CF90D008021040032003B00D1
:104C90000020C905FFF709F902000B0020002900D8
:104CA000FFF708F902000B000E980F99FFF707F9BC
:104CB0000022734BFFF7FEF87F4B0C9C9C4664442C
:104CC00000222305FFF715F906000F0002000B0074
:104CD00008980999FFF74CF900280AD00A9B300080
:104CE000013B39000A930022714BFFF7E8F80600F8
:104CF0000F000A9A330063323900C62A12D8022202
:104D00002698042510400B9A0C90002A25D1259B4B
:104D1000042B05D9002800D0A1E0259B043B0B9370
:104D2000042541E00222269810400B9A0C90002A9C
:104D300012D1259B052B76D9002872D1259B0525FC
:104D4000053B0B9334E0802212069446229B089385
:104D5000239B6344099330E605250B4300D1F6E617
:104D600008980999554A564BFFF710F9002808D0C2
:104D7000089809990022534BFFF7FAF8002800D051
:104D8000E5E6249B002B1CD00D9B002B19D0249B07
:104D9000013B2493259BAB4204D90C9B002B5AD09A
:104DA00002230C9300230B930A9B002B00D131E6C6
:104DB0000898099932003B00FFF781F808900991A3
:104DC00028E6259BAB42EDD90C9B002B43D000235A
:104DD0000B9302330C93E7E78020269B3A4A0006A8
:104DE0001A40802384460294089C099D2900DB0018
:104DF00013430493259B6144220003930B0000920C
:104E000001938EE60524A8E600230B930A93023350
:104E100004250C93FEE553468C46013B63441B1A64
:104E200072E602230C930525C2E70423EDE58020FA
:104E3000089E099F000639008446269A224B614449
:104E4000134004930B9B32000393249B02930B00AB
:104E500000920193F3E5259B5B1B0B93A4E70223D0
:104E600004250C93A0E79C1A013C76E601FCFFFFA9
:104E7000FB799F501344D33FB3C8608B288AC63F49
:104E80000000F03F0000F83F61436F63A787D23F07
:104E900071A379094F930A400000E03F1655B5BB56
:104EA000B16B0240EF39FAFE422EE63F00002C4083
:104EB0000000244000001840FF0300002D431CEBBD
:104EC000E2361A3F80842E41FFF7FFFFF0B5DE4641
:104ED00057464E464546E0B5A5B01E002E9B92466D
:104EE0000C93CD4ACD4B80468B461A60002900D1E9
:104EF000EAE1002330789946002800D1ECE1C84B64
:104F00004C460B93C74B454657460E930AE0631C2D
:104F1000984622003B005946A8474446307800286E
:104F200000D187E001362528F1D108239A46043BB9
:104F30009946023B9846013B00229C460D943078EE
:104F4000711C0300203BDBB2102B03D80B9C9B0091
:104F5000E3589F460300303B89460D9C092B3AD904
:104F6000002398462A2800D1C1E000239A462E2823
:104F70004BD00300683BDBB2122B1ED80E999B006E
:104F8000CB589F4663460E001A43D8E743460E00AF
:104F90001A43D4E74B460E001A43D0E710230E0005
:104FA0001A43CCE753460E001A43C8E780235B0040
:104FB0001A43FF3B9C467078E1444E4667284FD821
:104FC0002428A4D90300253BDBB2422B9FD8964965
:104FD0009B00CB589F46002394461E0000E0013101
:104FE000B3009B195B001E180878303E0300303B6D
:104FF000092BF4D90123624689469C460023B0461A
:105000009A460E00E1442E28B3D130218020494237
:105010008C46C000024370784B468444614609299F
:1050200000D86CE12A2800D17AE101239C464E4643
:10503000E1449EE7A146A846BA46CA4503D80123E3
:105040005B425344994653464A4659460020C0475E
:10505000200025B0F0BCBB46B246A946A046F0BD34
:105060000300693BDBB20D930F2B00D94FE7012101
:1050700099408C466D49894661464B4619400F91CF
:10508000634649460B4200D028E10D9B0A2B3AD0DB
:10509000072B00D03BE70C9B190008C98846002B62
:1050A00000D14BE121200243914614A98C461F22D6
:1050B0000F2162448C4651460D950C91A246150075
:1050C0000F9902E020290CD0130064461C402000F8
:1050D0003730092C00D80738013168541A090F2BD2
:1050E000F0D80C9B54460D9D9A460F9133E10C9BD2
:1050F00002CB8846002947DB0C9301239C4670783D
:105100004E46E14431E70C9B02CB14935346002BEF
:1051100000D138E19C4608780B000C908C440028A4
:1051200001D100F098FC89466146944603E05A7824
:105130000133002A01D08B42F9D1494662465B1AFD
:105140000C900F93530500D520E102231800104066
:105150000D90134200D1CBE30D930B1BB1469A4641
:105160005E460C9822003B003100A84753460134AC
:10517000185D0028F6D1B3464E460D9B002B00D09B
:10518000C7E1149B0C93C9E60C9301239C46283875
:1051900049420243884670784E46E144E5E670781D
:1051A0006C2800D17FE180235B001A43FF3B9C46C3
:1051B000E14402E780239B001A4301239C46707858
:1051C000E144FAE67078682800D173E180231A433D
:1051D0007F3B9C46E144F0E6672800D103E1472885
:1051E00000D15AE1452800D15AE1049207214246F4
:1051F0000C9B0392073352468B43190002920CC951
:105200002800009201930C9122003B005946FFF7C1
:105210009FFB040082E6C046CD4E00102C250020E6
:10522000B89A0010FC9A0010489B001041900000B2
:10523000462800D1DBE00492072142460C9B0392F2
:10524000073352468B43190002920CC92800009282
:1052500001930C9122003B005946FFF725F9040009
:105260005CE6631C984622003B0059462520A8476F
:10527000444653E60C9B04330D93631C99469207F6
:1052800000D422E10C9B2200187859463B00A84725
:1052900043464444012B00D885E23300B8462E0033
:1052A0005F4625004C4699462200434601343900AA
:1052B0002020B047AC42F7D12C00BB463500474612
:1052C0004E460D9B0C9329E6DB4B30789846002325
:1052D0009946002800D012E60024AEE66F2800D1DF
:1052E00088E000D80BE31023782800D1CFE09A4360
:1052F0000A239C4600230F930A330D9380E0564601
:10530000B1008919490001330E181878303E0100A8
:1053100030390929F4D9B2461E000133994628E6EE
:105320000C9B023602CB8A46C9435046C917084037
:1053300082460C933078731C99461AE610231000AD
:10534000984311331843814680201300C000034066
:10535000024200D1A9E64B46069308230593534623
:10536000049310230393002302930F9B22000193C5
:105370001CAB009359463B002800FEF7A7FF4346AD
:1053800004000C93CAE501235B42C3E60F9B53451F
:1053900001D953460F930223180010400D90134279
:1053A00000D1B7E10D93D1460B1B9A463300A144BF
:1053B0002E0022004D460C98B9465F469B4608E0F9
:1053C0004B463900541CB0475346185D002877D02F
:1053D00022009542F4D15B46BB464F46A9463500B4
:1053E0004C461E00C9E680231B011A43FDE620231C
:1053F0001A4320E708239C4600230F9308330D939C
:1054000080231100DB0019401A4200D116E10D2360
:105410009A431000802302009B001A401492184205
:1054200000D0C2E1802302005B001A4091460C9A32
:1054300004320F92184200D0B7E2430600D59FE134
:10544000030600D419E30C9B1B880993002B00D0A2
:10545000FCE110339843002900D1F7E1002399467D
:1054600043460593534604930D9B069003930023F4
:10547000D2E0582808D0622867D102239C46002336
:105480000F9302330D93BBE720231A43103B9C4636
:1054900000230F9310330D93B2E780231B011A43AF
:1054A00020231A43A1E6C0239B001A43F31C99460C
:1054B000B07882E5C0231A43F31C9946B0787CE5A6
:1054C00035005E46BB464F4657E64346012B00D8A3
:1054D00063E1631E43449A463300B9462E005F469B
:1054E00055469B46A24622004B46013439002020F7
:1054F000B047AC42F7D135005E46BB464F46A146A9
:1055000054460C9B4A46187859463B004444A847E9
:10551000D7E6A1460F9B984500D832E64444E41AEA
:105520003300B8462E005F4625004C4699462200BF
:105530004346013439002020B047AC42F7D12C005B
:10554000BB46350047464E461BE680231000DB0075
:1055500018401A4200D10FE1112118008A430D9220
:105560000D9A802311009B0019408C461A4269D184
:10557000802311005B00194089460C9904310F917A
:105580001A4200D0CAE113005B0600D5F0E0130018
:105590001B0600D459E20C9B00229B5ED9175A18B7
:1055A0004A4092B2D90F0C91002B00D1F9E11000C2
:1055B00014AA944642461F23149252466344A846B6
:1055C00016944D460400B946B2461F00159201E0FC
:1055D000202D0FD020000A21FEF72CFA01357E196C
:1055E0003031317020000A21FEF724FA2600040031
:1055F000092EEDD8149B4F46A94645469846159B63
:1056000056469A46169C0D9B069343460593534671
:1056100004930A2303930C9B02934B4601931CAB08
:105620002200009359463B002800FEF74FFE0F9BD7
:1056300004000C9372E4C0461D4200100C239A43F0
:105640001000E7E607220C9B073393430132944690
:105650009C4462460C920CCBD90F0F911100194358
:1056600000D191E0D91713911291514010911399E3
:105670005940119110981199129A139B801A9941CF
:105680001090119114AA0023944642469946149210
:1056900052461F336344A846B24616944E46109CA9
:1056A000119DB94615921F0001E0202E10D0200058
:1056B00029000A220023FEF7FBF9013630322B00C5
:1056C000BA550D0022000400002BEED1092AECD8B7
:1056D000149B1094119545469846159B4F46B1462C
:1056E00056469A46169C0D9B069343460593534691
:1056F00004930A2303930F9B02934B4601931CAB25
:105700002200009359463B002800FEF7DFFD04000D
:10571000FFF704FC0F9B984500D8C1E18023DB0014
:105720000D9343460F9A1B199B1A994633002E007E
:105730004D46B9465F469B460C9122004B460134CC
:1057400039002020B047AC42F7D143460C990133D1
:105750000F930B7835000C935E46BB464F46002BEB
:1057600000D10EE50D9B002B00D1F6E4002319E6D5
:105770000C9B1B781A0015E710239A430D92EFE655
:105780000C9B1B78099361E6002399460028AAD157
:10579000002200231092119374E70C9B22001878CA
:1057A00059463B00A8474C468BE50C9AFA3BFF3B19
:1057B00007329A430133994691444B460C93136840
:1057C000526815921A4306D1103290430022099272
:1057D000002900D081E06122810600D54122D2B2A9
:1057E0000A9214AA91460A9A00210A3A1492424651
:1057F0001792524618925A460991B3461F311E001D
:105800000F9B4944BA4619941A9500246746984656
:105810008946159D16901B920AE03032D2B24B4653
:1058200001341A55A8454AD0202C4AD006000D0054
:105830003A00002330002900FEF73AF9D2B2092AD3
:10584000EBD9149B9C466244D2B2E8E761238206FE
:1058500000D54123DBB20A3B0C93434614A91F2217
:105860008C46159353466244A046B2464C46179761
:10587000A9461700099D0D9E1490169308E0303339
:10588000DBB201343B55B5420ED3202C0CD00500C1
:1058900031002800FEF7CEF8CBB20929EFD90C9AD7
:1058A00094466344DBB2ECE7159B4D46A146444663
:1058B0009846169B564614989A46179FD0E5B742CD
:1058C000B2D9179B57469846189B5E469A461B9B33
:1058D00009949B461698199C1A9D43460593534676
:1058E00004930D9B0690039300230293099B05E705
:1058F0000F9B984500D914E701330F932DE4102333
:10590000110099430D91692800D0BAE0802310005E
:10591000DB0018401A4200D122E61DE60C9B1B68F2
:10592000DA0F1100002B00D18CE0DA1798185040E4
:1059300014AA914642461F23149252464B44A04655
:10594000A946169704006546B2461F000C911592B1
:1059500001E0202D0FD020000A21FEF76BF8013561
:105960007E193031317020000A21FEF763F82600DD
:105970000400092EEDD8149B444698460C9BAC4677
:105980001900159B56464D469A46169F0D9B02914F
:10599000069343460593534604930A2303936346B1
:1059A0003CE6002800D02EE602E60C9B1B689946D8
:1059B000002B03D110339843002938D1612382068C
:1059C00000D54123DBB20A3B0C9343461693534662
:1059D00014A91F228C4617932B006244A0464D4603
:1059E000B246189799461700149C0D9E159008E032
:1059F0003033DBB201343B55B5420ED3202C0CD0F2
:105A0000050031002800FEF715F8CBB20929EFD9BF
:105A10000C9A94466344DBB2ECE7169B149444461C
:105A20009846179B56464D469A461598189F4346EA
:105A30000593534604930D9B069003930023029312
:105A4000149BEBE50028A1D172E70C9B1B68D917CA
:105A50005A184A40A6E580231000DB0018409C46F7
:105A60000F901A420FD00220030013400F931042F0
:105A700019D00023A1460F934CE50C9B1B6809939A
:105A8000E4E40A0034E40223180010400D901342AD
:105A900000D03EE54346002B00D042E6FFF771FB05
:105AA00001330F937FE463460D93F3E70EB40122B5
:105AB00030B584B007AC08CC064D01000094280036
:105AC00052420394FFF702FA04B030BC08BC03B0A2
:105AD0001847C0461542001010B5094A0300146863
